:020000040000FA
:06000000F7EF03F012000F
:06002A0001000C080000BB
:08003000800000004400000004
:080038000000000000000000C0
:1000400000000000000000000000000000000000B0
:1000500012000F0EE66ED7EC03F0E55200D012004E
:10006000050EE66ED7EC03F0E55200D01200060E46
:10007000C16E280EE66EF6EC01F0E552B8EC03F026
:10008000000901E0FBD7030EE66E6AEC03F0E552CF
:10009000B8EC03F0000901E0FBD7030EE66E6AEC52
:1000A00003F0E552B8EC03F0000901E0FBD7030EC2
:1000B000E66E6AEC03F0E552B8EC03F0000901E0EB
:1000C000FBD7020EE66E6AEC03F0E552B8EC03F0E3
:1000D000000901E0FBD7280EE66E6AEC03F0E5525A
:1000E000B8EC03F0000901E0FBD7E66A6AEC03F024
:1000F000E552080EE66E6AEC03F0E552B8EC03F048
:10010000000901E0FBD7E66A6AEC03F0E5520D0E48
:10011000E66E6AEC03F0E552B8EC03F0000901E08A
:10012000FBD7010EE66E6AEC03F0E552B8EC03F083
:10013000000901E0FBD7060EE66E6AEC03F0E5521B
:10014000B8EC03F0000901E0FBD71200B8EC03F0B3
:10015000000901E0FBD7010EE66E6AEC03F0E55200
:100160001200D9CFE6FFE1CFD9FFB8EC03F00009C8
:1001700001E0FBD7FE0EDBCFE6FF43EC03F0E552D8
:10018000E552E7CFD9FF1200D9CFE6FFE1CFD9FF83
:10019000040EE126D9CFE6FFDACFE6FFFE0EDBCF75
:1001A00002F0036A02BE036802C0E6FF03C0E6FF76
:1001B0005CEC01F0E552E552E552E552D9CFE6FF9D
:1001C000DACFE6FF91EC03F0E552E552040EE15C74
:1001D00003E200D0E16AE552E16EE552E7CFD9FFD4
:1001E0001200D9CFE6FFE1CFD9FF060EE126D9CF25
:1001F000E6FFDACFE6FFFD0EDBCFE6FFFE0EDBCF3C
:10020000E6FF5CEC01F0E552E552E552E552D9CF4C
:10021000E6FFDACFE6FF91EC03F0E552E552060E79
:10022000E15C03E200D0E16AE552E16EE552E7CF1E
:10023000D9FF1200D9CFE6FFE1CFD9FFFD0EDBCF0A
:10024000E6FFFE0EDBCFE6FF91EC03F0E552E55250
:1002500000D0E552E7CFD9FF1200D9CFE6FFE1CFBA
:10026000D9FFFD0EDBCF02F0100EE76E0218E8AEEC
:1002700002D0023403D0E750D880025402E2FD0ECF
:10028000DB6AFE0EDB040CE1B8EC03F0000901E0D0
:10029000FBD7FD0EDB04E66E1AEC03F0E55207D047
:1002A000FD0EDB044009E66E1AEC03F0E55200D0C7
:0802B000E552E7CFD9FF12006F
:0802B800D9CFE6FFDACFE6FF23
:1002C000FA0EE3CFD9FFFB0EE3CFDAFFFD0EE352C8
:1002D00009E72D0EDE6EFC0EE31EE32AFD0ED8B4F8
:1002E000E306E31EE652E652E652FD0EE124E76E17
:1002F000FF0EE220E46EE652F70EE3CFE6FFF70EC4
:10030000E3CFE6FFCCEC01F0F90EE124E96EFF0E3D
:10031000E220EA6EBCEC01F00AE1B9EC01F009E17F
:10032000BCEC01F008E1B9EC01F007E108D0C7EC42
:1003300001F0C2EC01F0C7EC01F0C2EC01F0C7EC37
:1003400001F0DE6AF90EE126FF0EE222FF0EE3CF96
:10035000DAFFE552FF0EE3CFD9FFE552FC0EE124B0
:10036000E96EFF0EE220EA6EEECFF3FFEFCFF4FF6F
:100370001200EF380F0B1200EF500F0B02E1EE529C
:10038000D8841200EF380F0B300FDE6E1200EE50E3
:100390000F0B300FDE6E1200FC0EE3CFE9FFFD0EF7
:1003A000E3CFEAFF100EE66EEE6AEE6AEF6AD890CF
:1003B000FD0EE336FE0EE336ED36ED36EF36FF0E7C
:1003C000E30609E0EDEC01F0EE52EDEC01F0EE5247
:1003D000EDEC01F0EDD7E56E1200030EEF24E8B668
:0C03E000EF6E300EEF24E8BEEF6E000C54
:0403EC00D9CFE6FF80
:1003F000E1CFD9FFF00E83160F0E951292949296CC
:10040000929280948096809229EC00F0F00E9516DE
:100410008316838280821CEC00F0809230EC00F026
:10042000F00E8316838280821CEC00F0809230EC08
:1004300000F0F00E8316838280821CEC00F0809224
:100440000F0E9512B8EC03F0000901E0FBD7FE0E89
:10045000DBCFE6FF6AEC03F0E552B8EC03F00009ED
:1004600001E0FBD7080EE66E6AEC03F0E552B8EC4B
:1004700003F0000901E0FBD70F0EE66E6AEC03F013
:10048000E552B8EC03F0000901E0FBD7010EE66E7F
:100490006AEC03F0E552B8EC03F0000901E0FBD789
:1004A000130EE66E6AEC03F0E552B8EC03F00009B7
:1004B00001E0FBD7E66A1AEC03F0E55200D0E55202
:0604C000E7CFD9FF120096
:0A04C60037EC00F0A6EC00F0800E09
:1004D000E66E000EE66E1AEC01F0E552E552000100
:1004E000CE6BCF6BC80ECE5D000ECF5904E2CE2B83
:1004F000000ECF23F7D780B8FED7010EE66E020EAE
:10050000E66E2DEC01F0E552E552A20EE66E000E0D
:10051000E66E1AEC01F0E552E552010EE66EE66E6B
:100520002DEC01F0E552E552910EE66E000EE66EFE
:100530001AEC01F0E552E5520001CE6BCF6B0F0EC5
:10054000CE5D270ECF5915E20D0EE66E010EE66E5A
:100550002DEC01F0E552E552CEC0E6FFCFC0E6FF3C
:10056000F1EC00F0E552E5520001CE2B000ECF2356
:10057000E6D70D0EE66E010EE66E2DEC01F0E552AB
:10058000E552B30EE66E000EE66E1AEC01F0E5528F
:06059000E552D2D7120073
:0A0596002A0EF66E000EF76E000E3E
:1005A000F86E00010900F550C96F0900F550CA6FD7
:1005B00003E1C96701D03DD00900F550C46F0900BF
:1005C000F550C56F0900F550C66F09000900F550D8
:1005D000E96E0900F550EA6E090009000900F550BE
:1005E000C76F0900F550C86F09000900F6CFCBF0BE
:1005F000F7CFCCF0F8CFCDF0C4C0F6FFC5C0F7FF01
:10060000C6C0F8FF0001C75302E1C85307E0090064
:10061000F550EE6EC707F8E2C807F9D7CBC0F6FF72
:10062000CCC0F7FFCDC0F8FF0001C907000ECA5BC0
:04063000BFD712001E
:0C063400D9CFE6FFE1CFD9FFF00E9516FC
:100640008316FE0EDB508009E8380F0B0F0B831268
:10065000809480961CEC00F080821CEC00F080926C
:10066000F00E8316FE0EDB500F0B83121CEC00F015
:1006700080821CEC00F080920F0E951200D0E552A3
:06068000E7CFD9FF1200D4
:0A068600D9CFE6FFE1CFD9FFF00E57
:1006900095168316FE0EDB380F0B0F0B8312808628
:1006A00080941CEC00F080821CEC00F08092F00E34
:1006B0008316FE0EDB500F0B83121CEC00F08082C1
:1006C0001CEC00F080920F0E951200D0E552E7CF9F
:0406D000D9FF12003C
:0C06D400D9CFE6FFE1CFD9FFF00E95165C
:1006E0008316FE0EDB380F0B0F0B8312809480965F
:1006F0001CEC00F080821CEC00F08092F00E83165F
:10070000FE0EDB500F0B83121CEC00F080821CEC01
:1007100000F080920F0E951200D0E552E7CFD9FF7E
:020720001200C5
:0E072200D9CFE6FFE1CFD9FFFD0EDBCFE9FF17
:10073000FE0EDBCFEAFFEF5016E0B8EC03F0000945
:1007400001E0FBD7FD0EDBCFE9FFFE0EDBCFEAFFBA
:10075000EF50E66E43EC03F0E552FD0EDB2AFE0E91
:1007600001E3DB2AE2D700D0E552E7CFD9FF120040
:10077000808480961CEC00F080821CEC00F083A644
:100780000BD080921CEC00F080821CEC00F0809278
:100790008094010E0BD00AD080921CEC00F0808275
:0E07A0001CEC00F080928094000E00D012003D
:0207AE00FF0E3C
:1007B000E350046E480E01D04C0EE76EE72EFED7D4
:0E07C000E76AE72EFED7042EF7D700001200DE
:0207CE00000E1B
:1007D000F36E00EE00F0060E01D81200EA6002D0BF
:0E07E000EE6AFCD7F350E9601200EE6AFCD717
:0207EE0015EE06
:1007F00000F025EE00F0F86A019CCBEC02F005EC6D
:0A08000004F063EC02F0FBD71200D5
:02080A001200DA
:04080C002D3E20520B
:100810004134206472BC636B656E212000457273A5
:100820007465205A65696C653E2D2D2D2D00313281
:1008300033343536373839303132333435360020B9
:1008400020202020202020202020202020202000C8
:020000040030CA
:01000100FA04
:01000300FEFE
:01000600FBFE
:00000001FF
